S00B000050574D2E7372656325
S11300000C9434000C943E000C943E000C943E007E
S11300100C943E000C943E000C943E000C943E0064
S11300200C943E000C943E000C943E000C943E0054
S11300300C943E000C943E000C943E000C943E0044
S11300400C943E000C943E000C943E000C943E0034
S11300500C943E000C943E000C943E000C943E0024
S11300600C943E000C943E0011241FBECFEFD8E048
S1130070DEBFCDBF0E9440000C9474000C940000BD
S11300808AB180648AB984B5806884BD84B58F7B65
S113009084BD84B5806284BD84B58F7E84BD84B5FF
S11300A0826084BD84B5816084BD85B5877F85BD4C
S11300B085B58F7785BD85B58F7B85BD85B5846016
S11300C085BD85B58D7F85BD85B58E7F85BD83B5A1
S11300D08F7783BD83B58D7F83BD83B58E7F83BDCD
S10F00E016BC88E387BDFFCFF894FFCF67
S9030000FC
